:020000040800F2
:10000000C04F0020191100089B100008A110000823
:10001000A7100008AD100008B31000080000000091
:10002000000000000000000000000000B9100008FF
:10003000BB10000800000000BD100008BF10000841
:1000400061110008C7100008611100086111000863
:10005000CD100008D51000086111000861110008DA
:1000600061110008611100086111000861110008A8
:100070006111000861110008611100086111000898
:10008000611100086111000861110008D710000813
:10009000E7100008F71000080711000861110008B8
:1000A0006111000861110008611100086111000868
:1000B0006111000861110008611100086111000858
:1000C0006111000861110008611100086111000848
:1000D0006111000861110008611100086111000838
:1000E00061110008611100086111000800000000A2
:1000F0000000000000000000000000000000000000
:0C01000000000000000000005FF808F1A3
:10010C0010B5054C237833B9044B13B10448AFF345
:10011C0000800123237010BD000C002000000000A3
:10012C00742B000808B5034B1BB103490348AFF30C
:10013C00008008BD00000000040C0020742B000897
:10014C0010B58AB040F62040C2F200004FF4C8430C
:10015C00C4F2000303600623436000238360C36082
:10016C004FF4802202614FF4A00242610376012217
:10017C0042768276C2760377437701F046F828BB45
:10018C000D230593002306930122079204930892F2
:10019C004EF24002009201934FF6E07202920393EA
:1001AC0040F62044C2F200046946204601F01DF9D5
:1001BC00204601F0A0F940F61C43C2F200030221D4
:1001CC001960204601F0EFFA0AB010BD00F065FE90
:1001DC00D6E710B586B000230293039304930593DE
:1001EC0002684FF4C843C4F200039A4201D006B02F
:1001FC0010BD4FF48053C4F20203DA6942F000726E
:10020C00DA61DA6902F000720092009A9A6942F09F
:10021C0004029A619B6903F004030193019B4FF460
:10022C0000630293012304934FF40064C4F20104AD
:10023C0002A9204601F028FF4FF4805302930223B9
:10024C0003930323059302A9204601F01DFFCEE77B
:10025C0008B540F68440C2F200004FF44053C4F29B
:10026C000203036001F058FC00B908BD00F015FE54
:10027C00FBE702684FF44053C4F202039A4200D0E9
:10028C00704782B04FF48053C4F202035A6942F0B3
:10029C0040025A615B6903F040030193019B02B079
:1002AC00704710B588B00023049305930693079309
:1002BC004FF48053C4F202039A6942F010029A611F
:1002CC009A6902F010020092009A9A6942F0200298
:1002DC009A619A6902F020020192019A9A6942F09D
:1002EC0004029A619A6902F004020292029A9A69D3
:1002FC0042F008029A619B6903F008030393039B85
:10030C004FF4604304930324059404A94FF48050E4
:10031C00C4F2010001F0B8FE48F2FF730493059497
:10032C0004A94FF40060C4F2010001F0ADFE4FF6D9
:10033C00FF730493059404A94FF44060C4F20100C8
:10034C0001F0A2FE08B010BDBFF34F8F4FF46D4308
:10035C00CEF20003D96801F4E0610422C0F2FA5233
:10036C000A43DA60BFF34F8F00BFFDE704E011F8DA
:10037C00012B00F8012B1A46531E002AF7D17047A7
:10038C0000B54FF0000E4FF0FF3210E05208013371
:10039C00DBB2072B09D812F0010FF7D048F2203C42
:1003AC00CEF6B85C8CEA5202F1E70EF1010E8E45E6
:1003BC0004D210F80E305A400023EAE7D0435DF81F
:1003CC0004FB00B583B000230093019330228DF819
:1003DC00002005228DF8022040F6A041C2F2000157
:1003EC0040F203720A608B60CB6008230B6140F60D
:1003FC009C43C2F200036A4640F62040C2F2000061
:10040C0001F0A7F803B05DF804FB10B582B00A4602
:10041C0000240094019401F00F038DF80030014684
:10042C000DF10100FFF7A2FF40F6A041C2F200015E
:10043C0040F203730B608C60CC6008230B6140F6B8
:10044C009C43C2F200036A4640F62040C2F2000010
:10045C0001F07FF802B010BD08B50022114605204E
:10046C0001F018FB052001F025FB002211460420A9
:10047C0001F010FB042001F01DFB002211460120AD
:10048C0001F008FB012001F015FB0022114616209B
:10049C0001F000FB162001F00DFB00221146152087
:1004AC0001F0F8FA152001F005FB0022114614208A
:1004BC0001F0F0FA142001F0FDFA0022114613208D
:1004CC0001F0E8FA132001F0F5FA08BD10B572B688
:1004DC004FF0E02300221A615A619A6143F29C7238
:1004EC00C0F6000242F6C031C0F6000140F2000432
:1004FC00C2F20004521A204602F028FB21686268FE
:10050C004FF46D43CEF200039C6081F30888904752
:10051C0010BD0146002301E00133DBB213F0800F64
:10052C000CD103F500320132B1EB822FF4D203F57A
:10053C0000329002B1EB822FEED370470020FCE723
:10054C0010B586B072B643F6FF30C0F60000FFF768
:10055C00E0FF044601F046FC002302934FF4605385
:10056C00C0F60003049304F17840A0F56050800AB3
:10057C000130059001A902A801F028FD28B901F06D
:10058C0051FC62B6002006B010BD62B601F054FCFE
:10059C00F9E710B586B072B64FF2FF70C0F60000E6
:1005AC00FFF7B7FF044601F01DFC002302934FF444
:1005BC007053C0F60003049304F17840A0F570501A
:1005CC00800A0130059001A902A801F0FFFC28B9AE
:1005DC0001F028FC62B6002006B010BD62B601F036
:1005EC002BFCF9E7F8B505460F46164672B601F036
:1005FC00F9FB002401E004350134A6420CD957F86C
:10060C00242000232946022001F060FC0028F2D0AF
:10061C0062B601F011FC03E001F004FC62B60020AC
:10062C00F8BD72B6002393420BD210B450F823409D
:10063C0041F8234001339BB29342F7D362B610BC0E
:10064C00704762B6704738B54FF44054C0F600049A
:10065C00D4F8005C72B6162001F04FFA152001F0A8
:10066C004CFA142001F049FA132001F046FA052047
:10067C0001F043FA042001F040FA012001F03DFAA8
:10068C004FF0E02300221A615A619A614FF46D43D6
:10069C00CEF200034FF47052C0F600029A6085F35C
:1006AC000888D4F8043C984738BD08B572B640F6B3
:1006BC00E433C2F200031B6800221A6040F6E033F8
:1006CC00C2F200031B681A60FFF73EFE2DE9F047EB
:1006DC0086B004460E46002305930493057840F635
:1006EC00E833C2F200031B78022B05D0102D00F06A
:1006FC00938206B0BDE8F087222D28D0312D00F072
:10070C008780222D00F04B812378312B00F06E81F5
:10071C00342D00F08B81312D00F0CD81362D00F081
:10072C000B82372D00F06182112DE2D1012EE0D920
:10073C006378012BDDD151228DF804208DF8053022
:10074C00022101A8FFF761FE002302935BE203295B
:10075C0030D0032ED2D16378F12BCFD1A3787F2B5D
:10076C00CCD100230293039304228DF8082062223B
:10077C008DF80920F1228DF80A207F228DF80B20AC
:10078C0002228DF80C2040F6A041C2F2000140F28A
:10079C0003720A608B60CB6005230B6140F69C43AF
:1007AC00C2F2000302AA40F62040C2F2000000F0A0
:1007BC00D0FEA3E74278F12ACBD182787E2AC8D129
:1007CC0000220292039204218DF8081062218DF808
:1007DC000910F1218DF80A107E218DF80B108DF87F
:1007EC000C3040F6A041C2F2000140F203730B60E2
:1007FC008A60CA6005230B6140F69C43C2F2000379
:10080C0002AA40F62040C2F2000000F0A2FEA0E7CF
:10081C00032E7FF676AF6378012B7FF472AFA3784B
:10082C00002B7FF46EAFE378002B7FF46AAF40F6B9
:10083C00E442C2F20002126882B141F6F442C2F202
:10084C000002126852B140F6DC42C2F20002127889
:10085C00002A3BD04FF0FF32049217E042F68C3363
:10086C00C0F600031B68ADF808301B0C8DF80A307D
:10087C00032102A8FFF7C9FD3BE740F6E042C2F2B4
:10088C000002D15C04AAD1540133DBB240F6DC4245
:10089C00C2F2000212789A42EFD840F69447C2F2A4
:1008AC000007012204A93868FFF79CFE3B6804335B
:1008BC003B6040F69843C2F200031A6801321A609A
:1008CC0040F6DC43C2F2000300221A70042E2CD92D
:1008DC00A31913F8047C13F8032C47EA022713F826
:1008EC00022C47EA024713F8013C47EA036740F63B
:1008FC00E843C2F20003186840F6E443C2F2000376
:10090C001968FFF73DFD0590B8421DD042F68C33B7
:10091C00C0F600031B68ADF808301B0C8DF80A30CC
:10092C00032102A8FFF771FDEBE642F68C33C0F60B
:10093C0000031B68ADF808301B0C8DF80A3003213E
:10094C0002A8FFF762FDD4E600230293039304226E
:10095C008DF8082071228DF8092001228DF80A20CB
:10096C0040F6A047C2F2000740F203713960BB6049
:10097C00FB6005233B6105A94FF2FC70C0F600003B
:10098C00FFF730FE40F69C43C2F2000302AA394640
:10099C0040F62040C2F2000000F0DBFDB1E6032E71
:1009AC007FF4B2AE6378F12B7FF4AEAEA278802ADE
:1009BC007FF4AAAE62218DF808108DF809308DF8FD
:1009CC000A2040F6EC33C2F200031A788DF80B20A3
:1009DC005A788DF80C209A788DF80D20DB788DF8EC
:1009EC000E30072102A8FFF710FD8DE66378012B6E
:1009FC007FF48EAEA278002A7FF48AAEE1780729C4
:100A0C007FF486AE41F6F340C2F200000127077076
:100A1C0071208DF808008DF809308DF80A208DF8BA
:100A2C000B10042102A8FFF7F0FC71E6A278120962
:100A3C000332A118E07823791B0443EA0063607940
:100A4C0043EA0023A0790343A05C4A78120442EAEB
:100A5C000062887842EA0022C9780A4340F6E841ED
:100A6C00C2F200010B6040F6E441C2F200010A60E0
:100A7C0040F69442C2F20002136040F69843C2F270
:100A8C00000300221A6040F6DC43C2F200031A7025
:100A9C0041F6F443C2F200031A6074238DF8083057
:100AAC0010238DF80930F0238DF80A30032102A8A9
:100ABC00FFF7ABFC2FE66378012B7FF42FAEA27807
:100ACC00E37843EA0223042B1CD0052B7FF426AEDB
:100ADC00FFF736FD71238DF8083001238DF80930AE
:100AEC00A3788DF80A30E3788DF80B3000238DF85D
:100AFC000C308DF80D308DF80E30072102A8FFF761
:100B0C0084FC0BE6FFF745FD71238DF808300123BB
:100B1C008DF80930A3788DF80A30E3788DF80B3016
:100B2C0000238DF80C308DF80D308DF80E30072128
:100B3C0002A8FFF76AFCF1E5022E7FF6DAAD94F815
:100B4C000190A6F102081FFA88F841F6F443C2F2AC
:100B5C0000031A6842441A60002747453BD240F60E
:100B6C00DC42C2F200021378E119887840F6E041C9
:100B7C00C2F20001C8540137BFB20133DBB21370AB
:100B8C00042BEAD10A460B78497843EA0123917881
:100B9C0043EA0143D27843EA0263049340F6944A51
:100BAC00C2F2000A012204A9DAF80000FFF71AFDCC
:100BBC00DAF800300433CAF8003040F69843C2F239
:100BCC0000031A6801321A6040F6DC43C2F20003DB
:100BDC0000221A70C1E776238DF808308DF8099041
:100BEC00022102A8FFF711FC9BE5012E7FF49CADBE
:100BFC0077238DF80830012102A8FFF706FC93E556
:100C0C00029B01330293029A45F68F73C0F20103E3
:100C1C009A42F5D9FFF749FD01297FF66AAD437871
:100C2C00022B7FF466AD40F6E832C2F200020221DC
:100C3C00117050228DF808208DF8093002A8FFF7AA
:100C4C00E4FB56E510B58C460B781A0903F00F013E
:100C5C0090F810E0012A11D0022A00F0B18002B104
:100C6C0010BD0029FCD00EF1FF3E5FFA8EFE8E45C2
:100C7C00F6D30CF10100FFF729FDF1E700293CD177
:100C8C009CF80120CABBBEF1050F15D99CF80220B7
:100C9C009CF803301B0443EA02639CF8042043EAEB
:100CAC0002239CF80520134316D0B3F5805F80F027
:100CBC0083809BB206212EE040F6EC43C2F2000387
:100CCC001A7040F6EE43C2F200031A8040F6F0436D
:100CDC00C2F200031A80C3E740F6EC43C2F20003F1
:100CEC0000221A7040F6EE43C2F200031A8040F65E
:100CFC00F043C2F200031A80B2E7BEF1010F39D9FA
:100D0C009CF8012042EA01235A1E92B240F6FE7171
:100D1C008A4240D8022140F6F042C2F20002002082
:100D2C00108040F6EE42C2F200021380714513D2DD
:100D3C00AEEB010E5FFA8EF49C4200D9DCB2224677
:100D4C00614440F6F440C2F20000FFF70FFB40F69E
:100D5C00F043C2F200031C8040F6ED43C2F20003E4
:100D6C0001221A7040F6EC43C2F200031A70FFF72E
:100D7C0028FB75E740F6EC43C2F2000300221A7020
:100D8C0040F6EE43C2F200031A8040F6F043C2F282
:100D9C0000031A8064E740F6EC43C2F20003002221
:100DAC001A7040F6EE43C2F200031A8040F6F0438C
:100DBC00C2F200031A8053E7062140F6FF73AAE73C
:100DCC0040F6EC43C2F200031B78DBB2012B7FF43C
:100DDC0047AF40F6EE43C2F200031B8840F6F042E8
:100DEC00C2F2000210881B1A9BB20EF1FF3E5FFA92
:100DFC008EF49C4200D9DCB214BB40F6ED42C2F238
:100E0C0000021378013303F00F03137040F6F04324
:100E1C00C2F200031A8840F6EE43C2F200031988AE
:100E2C008A42FFF41DAF40F6EC43C2F200030022ED
:100E3C001A7040F6F440C2F20000FFF747FC0FE7CF
:100E4C0040F6F443C2F2000322460CF101011844AF
:100E5C00FFF78CFA40F6F043C2F200031A881444F0
:100E6C001C80CAE710B540F6B844C2F2000440F644
:100E7C00D443C2F200032246002100F0DFFB2268BB
:100E8C0040F202739A4200D010BD40F6D441C2F237
:100E9C0000012046FFF7D6FEF6E708B5FFF754FA37
:100EAC0000B591B02822002106A801F022FE0023F3
:100EBC0001930293039304930593012206924FF43A
:100ECC00803307930A9202220D920E934FF4E01393
:100EDC000F9306A801F07DFA80B90F23019302212C
:100EEC000291002303934FF480620492059301A8AE
:100EFC0001F01DFD20B911B05DF804FBFFF7CDFF2B
:100F0C00FFF7CBFF10B582B000F04DF9FFF7C8FF2B
:100F1C00FFF7C7F9FFF714F9FFF79AF9FFF79CFAF7
:100F2C000223C0F20103019300230093684601F0F1
:100F3C00E3F901F030FA4FF48053C4F202035B6A18
:100F4C0013F0006F41D140F6E033C2F200031B688E
:100F5C001B68323B022B3DD840F68C43C2F2000397
:100F6C0002221A6040F68C43C2F200031B68022B6B
:100F7C0056D140F6E833C2F2000302221A7041F651
:100F8C00F343C2F200031B78002BF8D041F6F34375
:100F9C00C2F2000300221A70FFF798FAEFE7002361
:100FAC0042F8043B44F6FF73C2F200039A42F6D9AE
:100FBC004FF48053C4F202035A6A42F000625A6240
:100FCC005A6A42F080725A62BDE744F6C072C2F2AD
:100FDC000002E7E740F69044C2F2000440F6DC332E
:100FEC00C2F20003012221461868FFF71AFB23689E
:040FFC00B3F1FF3F0F
:00000001FF
