:020000040800F2
:103C0000804F0020D594000839E8000845E80008F6
:103C100051E800085DE8000869E8000800000000BD
:103C2000000000000000000000000000A1D6000815
:103C300075E800080000000031D7000875D70008BB
:103C40001D95000877E800081D9500081D950008DF
:103C500089E800088DE800081D9500081D950008FA
:103C60001D9500081D9500081D95000891E80008A5
:103C70001D9500081D9500081D9500081D9500085C
:103C80001D9500081D9500089DE80008A9E800089A
:103C9000B5E80008B9E80008BDE800081D9500086F
:103CA000C1E80008CDE80008D1E80008D5E8000820
:103CB0001D950008D9E80008F1E800081D950008E6
:103CC0001D9500081D9500081D9500081D9500080C
:103CD0001D9500081D9500081D9500081D950008FC
:103CE0001D9500081D9500081D95000800000000A6
:103CF00000000000000000000000000000000000C4
:0C3D000000000000000000005FF808F167
:103D100010B5054C237833B9044B13B10448AFF305
:103D200000800123237010BD180300200000000054
:103D3000E4ED000808B5034B1BB103490348AFF39A
:103D4000008008BD000000001C030020E4ED000816
:103D500080F0004002E000BF81F0004142001FBF40
:103D60005FEA410392EA030F7FEA226C7FEA236C49
:103D70006AD04FEA1262D2EB1363C1BFD21841403E
:103D800048404140B8BF5B42192B88BF704710F0D4
:103D9000004F40F4000020F07F4018BF404211F077
:103DA000004F41F4000121F07F4118BF494292EADF
:103DB000030F3FD0A2F1010241FA03FC10EB0C000B
:103DC000C3F1200301FA03F100F0004302D5494298
:103DD00060EB4000B0F5000F13D3B0F1807F06D345
:103DE00040084FEA310102F10102FE2A51D2B1F13D
:103DF000004F40EBC25008BF20F0010040EA030032
:103E00007047490040EB0000013A28BFB0F5000FB1
:103E1000EDD2B0FA80FCACF1080CB2EB0C0200FA67
:103E20000CF0AABF00EBC25052421843BCBFD040B6
:103E30001843704792F0000F81F4000106BF80F430
:103E400000000132013BB5E74FEA41037FEA226CF3
:103E500018BF7FEA236C21D092EA030F04D092F0BE
:103E6000000F08BF0846704790EA010F1CBF0020F2
:103E7000704712F07F4F04D1400028BF40F000404F
:103E8000704712F100723CBF00F50000704700F06F
:103E9000004343F0FE4040F4000070477FEA226296
:103EA00016BF08467FEA23630146420206BF5FEA67
:103EB000412390EA010F40F4800070474FF0000367
:103EC00004E000BF10F0004348BF40425FEA000C2E
:103ED00008BF704743F0964301464FF000001CE0D6
:103EE00050EA010208BF70474FF000030AE000BF2C
:103EF00050EA010208BF704711F0004302D540426A
:103F000061EB41015FEA010C02BF844601460020DB
:103F100043F0B64308BFA3F18053A3F50003BCFAF6
:103F20008CF2083AA3EBC25310DB01FA02FC6344A3
:103F300000FA02FCC2F12002BCF1004F20FA02F2AA
:103F400043EB020008BF20F00100704702F120029D
:103F500001FA02FCC2F1200250EA4C0021FA02F2FE
:103F600043EB020008BF20EADC7070474FF0FF0C03
:103F70001CEAD0521EBF1CEAD15392EA0C0F93EAFE
:103F80000C0F6FD01A4480EA010C400218BF5FEAA0
:103F900041211ED04FF0006343EA501043EA511113
:103FA000A0FB01310CF00040B1F5000F3EBF49000D
:103FB00041EAD3715B0040EA010062F17F02FD2A11
:103FC0001DD8B3F1004F40EBC25008BF20F00100F4
:103FD000704790F0000F0CF0004C08BF49024CEA0B
:103FE000502040EA51207F3AC2BFD2F1FF0340EA9D
:103FF000C250704740F400004FF00003013A5DDC0E
:1040000012F1190FDCBF00F000407047C2F100024E
:10401000410021FA02F1C2F1200200FA02FC5FEA3B
:10402000310040F1000053EA4C0308BF20EADC7085
:10403000704792F0000F00F0004C02BF400010F4F7
:10404000000F013AF9D040EA0C0093F0000F01F0A4
:10405000004C02BF490011F4000F013BF9D041EAC6
:104060000C018FE70CEAD15392EA0C0F18BF93EAC8
:104070000C0F0AD030F0004C18BF31F0004CD8D1F2
:1040800080EA010000F00040704790F0000F17BF79
:1040900090F0004F084691F0000F91F0004F14D0BF
:1040A00092EA0C0F01D142020FD193EA0C0F03D117
:1040B0004B0218BF084608D180EA010000F000401A
:1040C00040F0FE4040F40000704740F0FE4040F4F5
:1040D000400070474FF0FF0C1CEAD0521EBF1CEA94
:1040E000D15392EA0C0F93EA0C0F69D0A2EB0302B2
:1040F00080EA010C49024FEA402037D04FF080534C
:1041000043EA111143EA10130CF000408B4238BF10
:104110005B0042F17D024FF4000C8B4224BF5B1A1E
:1041200040EA0C00B3EB510F24BFA3EB510340EA6C
:104130005C00B3EB910F24BFA3EB910340EA9C001A
:10414000B3EBD10F24BFA3EBD10340EADC001B018A
:1041500018BF5FEA1C1CE0D1FD2A3FF650AF8B422E
:1041600040EBC25008BF20F0010070470CF0004C3B
:104170004CEA50207F32C2BFD2F1FF0340EAC25066
:10418000704740F400004FF00003013A37E792F027
:10419000000F00F0004C02BF400010F4000F013A85
:1041A000F9D040EA0C0093F0000F01F0004C02BF80
:1041B000490011F4000F013BF9D041EA0C0195E7E9
:1041C0000CEAD15392EA0C0F08D142027FF47DAF82
:1041D00093EA0C0F7FF470AF084676E793EA0C0F72
:1041E00004D14B023FF44CAF08466EE730F0004C70
:1041F00018BF31F0004CCAD130F000427FF45CAF00
:1042000031F000437FF43CAF5FE700BF4FF0FF3C6D
:1042100006E000BF4FF0010C02E000BF4FF0010CC0
:104220004DF804CD4FEA40024FEA41037FEA226C89
:1042300018BF7FEA236C11D001B052EA530C18BFAB
:1042400090EA010F58BFB2EB030088BFC81738BF10
:104250006FEAE17018BF40F0010070477FEA226CFE
:1042600002D15FEA402C05D17FEA236CE4D15FEAFA
:10427000412CE1D05DF8040B704700BF844608462E
:104280006146FFE70FB5FFF7C9FF002848BF10F1EF
:10429000000F0FBD4DF808EDFFF7F4FF0CBF012034
:1042A00000205DF808FB00BF4DF808EDFFF7EAFFBE
:1042B00034BF012000205DF808FB00BF4DF808ED79
:1042C000FFF7E0FF94BF012000205DF808FB00BF6E
:1042D0004DF808EDFFF7D2FF94BF012000205DF8F4
:1042E00008FB00BF4DF808EDFFF7C8FF34BF012001
:1042F00000205DF808FB00BF4FEA40024FEA41038F
:104300007FEA226C02D15FEA402C08D17FEA236C5D
:1043100002D15FEA412C02D14FF0000070474FF00C
:10432000010070474FEA4002B2F1FE4F0FD34FF049
:104330009E03B3EB12620DD94FEA002343F0004312
:1043400010F0004F23FA02F018BF404270474FF0C0
:104350000000704712F1610F01D1420205D110F047
:10436000004008BF6FF0004070474FF000007047FA
:1043700042000ED2B2F1FE4F0BD34FF09E03B3EBCF
:10438000126209D44FEA002343F0004323FA02F0FB
:1043900070474FF00000704712F1610F01D14202E7
:1043A00002D14FF0FF3070474FF00000704700BF60
:1043B000F8B5204B04461E681F4B014630461D6869
:1043C000FFF786FF40BB1D4B21461F683846FFF7AD
:1043D00075FF18BB31462046FFF7BEFC2946044650
:1043E0001748FFF7B9FC01462046FFF7BFFD3146ED
:1043F00004463846FFF7B0FC01462046FFF76AFE48
:1044000001460F48FFF7A8FC044629462046FFF75F
:104410004BFF20B12C460AE0094CF6E72C46094B2D
:1044200020461D682946FFF75DFF0028F2D120468F
:10443000F8BD00BF30000020380000202C00002014
:104440000000C842340000202DE9F8432149054608
:10445000FFF734FF002838D128461F49FFF738FFFF
:104460000446002833D11D4E56F8047B28463946B1
:10447000A1460134FFF72CFF28B3D6F80080284668
:104480004146FFF711FFF0B1154B53F8296053F87F
:1044900024003146FFF760FC394604462846FFF702
:1044A0005BFC01462046FFF761FD39460446404665
:1044B000FFF752FC01462046FFF70CFE3146FFF79E
:1044C0004DFCBDE8F8830C2CCED10020F9E705485F
:1044D000F7E700BF0000284100004C4130EE000823
:1044E000FCED00080000C84210B516490446FFF76D
:1044F000E5FED0B920461449FFF7E0FEB8B92046E2
:104500001249FFF7DBFEA0B920461149FFF7D6FE9E
:1045100088B920460F49FFF7D1FE70B920460E49F1
:10452000FFF7CCFE58B10D4810BD0D48FCE70D4813
:10453000FAE70D48F8E70D48F6E70D48F4E70D48AF
:10454000F2E700BF33332B4166662E4133333341EC
:1045500000003841CDCC3C41000040410000B44255
:1045600000000C420000344200005C420000824225
:104570000000A0420000C8422DE9F04FA14BA24A22
:104580001B881268A14E9342A14DA24AA24FDFF8A8
:104590008C82A34C95B0C0F0E08131688B424FF023
:1045A0000003136000F2E2812B603B7088F800305A
:1045B0000A22944B9B4E1B8803EB8303B3FBF2F35D
:1045C000994A1380994A1168994A8B42157894BF89
:1045D0000020581A002D40F0FD810B4431888B4299
:1045E00001D801231370934BDFF84CB21B78012BD9
:1045F0000ED06BB19BF80030012B09D043B18F4B2B
:104600001B78012B04D08E4B1B785D1E6B426B41D7
:104610008C4A387813708C4A92F800908B4A15783F
:104620008B4A012D92F800A098F8002003D0012AAF
:1046300001D0012804D14FF0010C864981F800C057
:10464000854991F800C0BCF1000F40F0DF81012BDB
:1046500000F0C9810022814D81482A7002780B70D8
:10466000804B012A19780FD14A1E022A0CD87E4AA3
:1046700092F800C0BCF1040F02D01278062A03D1D0
:104680000022027079480270774ADFF8E4911078CE
:1046900088421CBF12781A70764B1A68764B104607
:1046A00019680192FFF71EFE019A002800F0B281FE
:1046B000D9F8002023680AB9C9F80030D9F80020D9
:1046C0009B1A6E4A126893420BD3BAF1000F08D1BD
:1046D00001222F215E4B85F800A01A70582003F0AC
:1046E000EDFD674BD3F800A0664B51461868FFF705
:1046F000F9FD8146002800F0C381DFF88C91236822
:10470000D9F80020002A40F0AB81C9F800304E4BA8
:104710001B78012B06D15D4A23681168002940F0FF
:10472000D381136098F80030012B02D03B78012B25
:1047300001D100232B70564BDFF858911B78484F5E
:10474000012B04BF00222A7099F80020012A474A51
:1047500009D13D4938780978014301BF107889F8BB
:104760000010411C11704C480178012906D139789C
:104770000B4301BF117803704B1C1370474B127829
:104780001B689A4205D101232F2154203B7003F06E
:1047900095FD3B780BB100232B702C480378012B3F
:1047A0003F4B40F0B08100221F49378809882A70AA
:1047B0008F42C0F0A8811F682168002F40F08E81D1
:1047C0001960384B9BF800801A78424518BF83F86F
:1047D00000802F4B1F78304B1A78BA4218BF1F70D9
:1047E000194B99F800201B789A4218BF89F80030BD
:1047F000B8F1010F6DD1DFF8B0A02C4B9AF8000092
:104800001B6855E050010020EC000020E80000206B
:104810007003002074030020F6040020F50400203B
:10482000E804002052010020EC04002014010020C4
:10483000F20400206001002055010020A4020020A5
:10484000FC04002054010020F7040020F80400209C
:10485000FD0400206E0300206D030020560100209F
:10486000F00400206C0300204E050020F10400201D
:1048700068030020980400207C0000200401002030
:104880008C040020800000206403002060030020CE
:10489000F90400205D0300205C0300200C010020CF
:1048A000580300205503002054030020100100206D
:1048B000DFF8D4929842D9F800B080F02781B34B4A
:1048C00001308AF8000059461868FFF747FAC9F81E
:1048D0000000AF4BDFF8BCA2D3F800B0AE4B584697
:1048E0001968DAF800900191FFF7DEFC002800F06B
:1048F0001C81002F40F01981B8F1010F019940F09F
:1049000014810846FFF732FB594680465846FFF7A8
:104910002DFB01464046FFF71FFAA049FFF7DAFBDF
:104920004946FFF71BFACAF80000FFF721FD9C4B30
:104930001860984BD3F800909A4B48461968FFF7D7
:10494000D1FC8046002800F04D8101232F21964A9A
:104950001370532003F0B2FC4FE11168236851B982
:104960001360924B1A8833689A4231D92A682368B7
:10497000B2B92B601CE68E4A5B1A1268934206D9C4
:1049800001232F213B70502003F098FCE9E700231E
:1049900050203B7003F07EFC2F28E2D12E21F2E75D
:1049A0009B1A834A1268934207D901232F2188F862
:1049B0000030512003F082FCFAE50023512088F8F2
:1049C000003003F067FC2F287FF4F2AD2E21F0E7D2
:1049D0000023CEE7012D7FF406AE338883423FF6F5
:1049E00002AE0023FEE5DFF8CCE18EF800C049EA14
:1049F00005094AEA090942EA090202437FF42AAE9C
:104A00006C4A1278B2FA82F2520924E6012B7FF442
:104A100021AEECE7684B10461968FFF745FCE0B1A2
:104A2000D9F8002023680AB9C9F80030D9F8002065
:104A30009B1A5F4A12689342FFF453AEBAF1010F1A
:104A40007FF44FAE00225D4B58201A7003F022FC19
:104A50002F287FF446AE2E2140E6C9F8000040E63C
:104A60009B1A534A126893427FF651AE0123544A6F
:104A70002F21592013702B7003F020FC002344E6F3
:104A800050465049FFF72EFC00283FF440AEDFF8B7
:104A900038A12368DAF8002012B9CAF8003036E6E7
:104AA0009B1A434A126893427FF631AE444B592019
:104AB00083F8009003F0EEFB2F2803D12E2159201C
:104AC00003F0FCFB0023E8E75B1A404909688B42CE
:104AD0007FF628AE00233E490B7022E6C91B344FF7
:104AE0003F68B9427FF66DAE3A49027056200A60BF
:104AF0001A6003F0CFFB2F287FF463AE2E215620DF
:104B000003F0DCFB5DE600221A605AE6FFF7DAF9F3
:104B100001465846FFF7DEFA1F4B186000238AF85B
:104B200000300023C9F80030D3E62B4B22681B6805
:104B3000B2FBF3F103FB1128B8F1000F7FF4F9AEDB
:104B4000264BDFF850B01868FFF7B8F94946FFF771
:104B50000DFA2349FFF7BEFACBF800008246FFF7B3
:104B600007FCDFF83C904FF07E51C9F8000050463A
:104B7000FFF79AFB00283FF4DCAE0023C9F8008061
:104B8000CBF80030D5E600BF50030020940400208D
:104B9000B0000020480300204C030020000020410A
:104BA000DC040020AC000020F904002050010020AB
:104BB000040100206E03002078000020FD04002086
:104BC000FC040020CDCCCCBD64030020F800002004
:104BD000F7040020E404002010010020FC00002065
:104BE0000000C84200214846FFF754FB002861D06E
:104BF000012F5FD1804B83F800802B787F4F012BF2
:104C00005FD03B780BB901233B7097F80080B8F177
:104C1000000F09D07A4A106800285DD1236813601C
:104C2000784A1360784A1360784F3B78012B40F044
:104C30000581DFF8DC91DFF8DC81D9F80020D8F8B5
:104C40000000A2F114012268121A914212D8724A8D
:104C50003188126891424FF00002C0F0C0806F4B63
:104C600055201A7003F016FB2F2803D12E21552052
:104C700003F024FBD9F800202368D8F800100E3A7E
:104C80005B1A9A4200F2EB80654B32881B88A3F5D1
:104C90007A73934200F2A8800023604A5520137073
:104CA00003F0F8FA2F2840F0DA802E21552003F087
:104CB00005FBD4E0532003F0EDFA2F289DD12E21DF
:104CC00047E600234E4A3B7013604E4A13604E4A3B
:104CD0001360544A137098E7B8F1020F2CD0B8F162
:104CE000030F53D0B8F1010F9ED14D4B3288198874
:104CF00023681B1A4C48006883420BD3914293D817
:104D00002F21522003F0DAFA02233B70454B83F83F
:104D1000008089E7914287D9022300223B70414BF2
:104D200052201A7003F0B6FA2F287FF47DAF2E219F
:104D3000522003F0C3FA77E70A223C4B31481B8824
:104D4000006803EB4303B3FBF2F322683188121AC5
:104D500037480068824208D38B423FF765AF2F2166
:104D60005F2003F0ABFA0323CFE78B427FF75CAF02
:104D7000032300223B702B4B5F201A7003F08AFA4A
:104D80002F287FF451AF2E215F20D2E7294B1E48F8
:104D90001A680068236831881B1A27480068834214
:104DA0000CD39142FFF440AF2F21602003F086FA2C
:104DB0001C4B83F8008004233B7035E79142BFF41D
:104DC00033AF042300223B70164B60201A7003F0AF
:104DD00061FA2F287FF428AF2E216020A9E70F4920
:104DE0002A700B702F2142E701230C4A2F211370E8
:104DF00000232B705AE700BFF9040020F3040020C1
:104E000044030020400300203C030020FB0400205A
:104E100008010020E0040020E4000020F704002046
:104E2000EC040020FA040020F400002050010020CF
:104E3000CC000020F0000020D0000020022B0ED17A
:104E4000994B197801290AD1984B1A8833889A42CC
:104E5000974A00F2B981002396490B70136040F223
:104E60000222954B2D781B68012D5A6340F0D481A6
:104E70003A782368002A40F0B981904A116841B914
:104E800013608F4A022113602A463D708D4805F059
:104E900083FE8D4B1B8818460A93FFF70FF88B494A
:104EA0000790FFF717F93388029018460B93FFF726
:104EB00005F886490890FFF70DF9854B0546D3F8AC
:104EC00000B0844B1B680693834B1B78002B71D179
:104ED000824C029B266C2360E360069B606020612D
:104EE0007F493046C4F808B0C4F814B06364FFF7D3
:104EF000DBF920B930467B49FFF7F4F910B17A4B62
:104F00001B682364266A00213046FFF7CDF920B9DB
:104F100030467649FFF7E6F918B10298FFF794FAA0
:104F20002062734B266A1C68724B214630461F680C
:104F3000FFF7BAF938B939463046FFF7D3F90028F8
:104F400000F07B813C46654E029834627462FFF744
:104F50007BFAB062306CFFF72BFA644930637163FF
:104F6000F062FFF7B7F80699FFF700F84FF07E51AF
:104F70000746FFF799F908B14FF07E570023B76451
:104F8000B76B00213846C6F88030A6F88430FFF7AA
:104F90008BF920B938465849FFF7A4F920B100230E
:104FA000B363002386F83C304B4B029ADC629A6272
:104FB00001221A60494F029BFC683B60069B214618
:104FC0007B644E4B7D601E680298C7F808B0FEF700
:104FD000C3FE3146FEF7CAFF2146FEF7BFFED7F8F3
:104FE000108004464146F8602846FEF7B5FE31467B
:104FF000FEF7BCFF4146FEF7B1FE7D690646294635
:1050000038615846FEF7A8FE3D4B1968FEF7AEFF23
:105010002946FEF7A3FE2146786105463046FEF795
:105020009BFE97F883302C4EB861002B40F00F8127
:10503000344B1968FFF74CF9002800F00681324A1A
:10504000F36812689342C0F0FA800122234B83F880
:10505000832000233361214A92F8833003931E4B4F
:105060000398D97881420FD000215961A2F88410A9
:10507000002800F004810020996118631962D0644F
:105080009065154B039ADA70204BD3F800A0204BA3
:1050900050461968FEF762FE0F4B07465E780AF12C
:1050A0000049022E3DD135E0F4040020EC0400203C
:1050B000E4040020F8040020F83E0020380300201B
:1050C000E0040020000C01405001002000007A4460
:1050D000940400207400002078030020B403002012
:1050E0006F12833A9A99993E300000200000C8421E
:1050F0006C000020680000200000A0414C0000204F
:105100004800002018000020040100202400002096
:105110001C00002049462846FFF7D0F8002840F040
:10512000E580284607F10041FFF7C8F8002840F065
:10513000AF80012E06D151462846FFF7C9F8002856
:1051400040F0D48039462846FFF7C2F8003818BF2F
:105150000120864200F0CA80674A9378834200F0BB
:105160009980012390709360634B5B780193019A5F
:10517000624B911E83F880204A424A4183F8812085
:10518000019A501E4242424183F882205C4B1E68C5
:10519000039B002B40F0188300212846FFF784F87A
:1051A000002800F0A68005F100413046FFF790F896
:1051B000002800F00983504B5F69002F40F0B28057
:1051C00001229C625A61C8E01068236800283FF4FD
:1051D00045AE4C4A1B1A126893427FF640AE4A4BCA
:1051E0005620197000232F212B7060E5012A7FF4CF
:1051F00050AE464801685B1A454909688B4204D3A2
:10520000002202210260397040E601398B42FFF42E
:1052100040AE4FF4806139E6002D7FF43AAE3D4B4D
:105220002A461D60394B02211D603B4B3B483D70B7
:105230001D6005F0B1FC2A46EBE7344683E60133F6
:105240009A42F3603FF607AFFFE6F06003E7344BA6
:105250001968FFF733F880B12A4A3369126893421C
:1052600005D30023254AF36082F88330F3E6013347
:105270009A4233613FF6EFAEF3E73061EBE6039914
:105280000398D96100215862596311655165F8E6A8
:1052900002205EE71B49936809688B4212D30228FB
:1052A0004FF0000314D10026144993611663136272
:1052B000CE648E65A1F8843053610F4B5870002284
:1052C0009A6051E70133994293603FF64DAFE6E7AC
:1052D0000128094A07D100260849D3615663536261
:1052E0000E654E65E6E753619462E6E7024B9E70F9
:1052F000E5E7294659E700BF78030020B403002002
:105300000000002004010020F804002038030020E1
:1053100008010020E4040020E0040020000C01400B
:1053200014000020996A2046FEF716FD002106466B
:10533000FEF7BAFF08B106F10046AE4B3146D3F88E
:105340000080AD4B1868FEF7C3FFAC4B00283FF45C
:1053500037AF474501D201375F61A84AA54E516971
:105360003668A74BB14293F83C0080F01A820022C5
:1053700083F88420DFF88882D8F8403018460C93F0
:10538000FFF716F898F83C3006460F9398F88430EB
:1053900005930F9B002B00F01F82D8F83800FFF711
:1053A000A3F8074639463046C8F83060C8F834706C
:1053B000FEF77AFF00B13746914E38469149F762C1
:1053C000FEF788FE0699FEF7D1FD4FF07E510746A5
:1053D000FEF76AFF08B14FF07E5751462846B76482
:1053E000FEF776FF002800F0FF8151462846FEF7C1
:1053F000B3FC064649462846FEF760FF002800F049
:10540000F581514605F10040FEF7A6FC0490049991
:105410003046FEF7A1FC7C4912900498FEF7A6FDE9
:10542000794910903046FEF7A1FD784B0D901B682E
:10543000109819460E93FEF799FD0D991390FEF7FB
:105440008BFCDFF8BC816F491190FEF78FFD394668
:10545000FEF740FED8F82410FEF780FC6C4A0746A1
:1054600013686C4A1946D2F800900993FEF71CFFA6
:10547000002840F0BE8149463846FEF733FF00B1B0
:105480004F46059BC8F82470002B00F0B481012220
:10549000204688F88520C8F81C40FEF7D5FF39461D
:1054A000C8F82800FEF758FC5B4A1168FEF75EFD5D
:1054B0003946FEF753FCC8F82400DFF844A10998E8
:1054C000DAF824502946FEF70DFF002840F0C3818A
:1054D00029464846FEF7E8FE00B14D46019BCAF852
:1054E0002450012BCAF820500DD1DFF8109199F803
:1054F000043043B1494B30461968FEF7D5FE0746E4
:10550000002800F0AA810023454ADFF8F4901360D8
:10551000D9F8403018460993FEF74AFF0F9B07461B
:10552000002B00F0C881D9F83800FEF7DDFF804677
:1055300041463846C9F83070C9F83480FEF7B4FEE9
:1055400000B1B8462E4F2F494046C7F82C80FEF7D1
:10555000C1FD0699FEF70AFD4FF07E518146FEF728
:10556000A3FE08B14FF07E591399F86DC7F8489023
:10557000FEF7F4FB0D99F865786EFEF7EFFB1199D5
:105580007866F86EFEF7EAFB1099F8662046FEF79B
:10559000EDFC0E99FEF7EAFC396EFEF7DFFB0D9984
:1055A00038662046FEF7E2FC0146B86EFEF7D6FBF1
:1055B0001199B8662046FEF7D9FC0146386FFEF710
:1055C000CDFB002138670498FEF78CFEA8B3DFF806
:1055D0002CA00498DAF83010FEF7C0FBCAF83000AF
:1055E0000390DAF820000130CAF82000FEF766FCCC
:1055F00018E000BF5C00002060000020780300205D
:10560000B40300200000C842DC69BA354000002025
:105610006C000020680000203C00002010000020EA
:1056200034030020039A01461046FEF753FDDAF8D2
:105630001820F8640132CAF8182000213046FEF71D
:1056400051FEA8B1A04F3046796BFEF787FB786317
:105650000390786A01307862FEF730FC039B0146C4
:105660001846FEF737FD994B1865FB690133FB615E
:1056700012992046FEF77AFC944F0021786704982F
:10568000FEF730FE002800F0478120460499FEF71F
:105690006DFCB86700213046FEF724FE002800F0BC
:1056A0003D8131462046FEF761FC019B874F012B6F
:1056B000F86740F03881D7F850A085495046FEF78A
:1056C00011FE002800F02C8182492846FEF702FDD9
:1056D0004946FEF74BFC5146FEF7FCFC786500207E
:1056E0007A4B7D4998654046FEF7E8FD002840F07A
:1056F0003C81059B3BB1794B20461968FEF7DEFDE6
:10570000002840F0328128467549FEF7D7FD071E74
:1057100018BF0127DFF8B481059B88F886703BB17C
:10572000704B20461968FEF7C9FD002840F01F8124
:105730004FF082412846FEF7C1FD041E18BF012428
:10574000694B0298196888F88740FEF7B7FD30B1B9
:1057500030466649FEF7C6FD003818BF01205B4B96
:1057600083F88800059B002B40F00381DFF88091CF
:1057700060490998FEF7ACFD48B15F490998FEF70A
:105780009DFD20B148465D49FEF7E8FA8146019B40
:10579000022B40F0F78048465949FEF7DFFA814670
:1057A000F4E00121946383F88410117130B1204634
:1057B000996BFEF779FD00283FF4DCAD0122434BE5
:1057C0009C6383F83C20D5E500233F4A53619462F3
:1057D0003E4A82F88430CDE5059B1BB1039B0BB993
:1057E0002046DCE53B4FDDE5002603E6002304937D
:1057F0000DE6099F45E6059B88F88530019B002B47
:105800007FF45BAE00212846FEF74EFD08B105F19E
:1058100000453C495046FEF7A1FA2946FEF758FDDF
:1058200000283FF44AAE384B4FF07A511868FEF723
:105830009DFBDFF898A005463946DAF82800FEF708
:105840008BFA01462846FEF791FB3946FEF786FAA9
:10585000CAF8240031E6099D40E62C4B2C4A1B680F
:105860001268934201D201334EE62146D9F838003E
:10587000FEF772FA3146FEF72DFC1E498046FEF710
:1058800027FD00283FF43FAE40461B49FEF716FDBA
:1058900000283FF438AE0C994046FEF75DFA1D4BE8
:1058A0001968FEF763FB0C99FEF758FA89F8047043
:1058B000CAF8400027E6059B1BB1039B0BB92046A5
:1058C00033E6DFF8108033E678030020B4030020CD
:1058D000CDCC4C3D0000C842000082425800002060
:1058E0000000A04154000020500000200000A04013
:1058F00000000C426F12833A9A99993E0000704161
:1059000000002041CDCCCC3D3C00002034030020E1
:1059100004010020440000200020BAE60020C4E674
:1059200000237B65DBE600237B65019B022B7FF474
:10593000D6AEFF6C10493846FEF7D4FC00283FF481
:10594000CEAE29460D48FEF707FA0C49FEF7C2FB1A
:105950004946FEF70BFB394681460E98FEF706FBDB
:1059600001464846FEF7B6FBBAE60127D2E6012417
:10597000E6E6DFF80C90FBE6CDCC4C3D0000C842DB
:1059800000007042019B012B3FF405AF27B1484650
:10599000A449FEF7E1F9814624B14846A249FEF741
:1059A000DBF9814600214846FEF77EFC00260028F0
:1059B00040F0D08148469D49FEF794FC08B1DFF8DD
:1059C0006C924846FEF7D4FC994B88F88900DD625A
:1059D000984B1C68B4F5C87FC0F0B581964B1B7816
:1059E000002B40F08880954B0A981D68DFF85082A4
:1059F00001351D60FEF766FAD8F800100746FEF77D
:105A000053FC10B1079BC8F80030DFF838823846E5
:105A1000D8F80010FEF766FC10B1079BC8F80030FC
:105A2000DFF824923846D9F80010FEF797F9C9F844
:105A3000000080460B98FEF745FADFF81092074603
:105A4000D9F80010FEF730FC10B1089BC9F80030FF
:105A5000DFF8FC913846D9F80010FEF743FC10B18E
:105A6000089BC9F80030DFF8EC913846D9F80010EF
:105A7000FEF774F9C9F80000DFF8DC910746D9F8A1
:105A800000105846FEF710FC08B1C9F800B0DFF866
:105A9000CC915846D9F80010FEF724FC08B1C9F89B
:105AA00000B0DFF8BCA15846DAF80010FEF756F94E
:105AB0006C4BCAF800008146186801301860FEF788
:105AC000FDF9824601464046FEF704FB664B51460F
:105AD00018603846FEF7FEFA644B51461860484697
:105AE000FEF7F8FA624B1860624B1B689D4222BFBA
:105AF0000122514B1A70604D2B78002B40F08C80A6
:105B000042F6E162B4FBF2F302FB1343DFF86C816F
:105B10005B4FA3B95B495C485C4A01605C48C8F8CC
:105B2000001002605B483A6001605B490A605B4AB2
:105B300016605B4A16605B4A16605B4A13600A98FF
:105B4000FEF7C0F9D8F800100646FEF7ADFB10B11D
:105B5000079BC8F8003030463968FEF7C3FB08B130
:105B6000079B3B604D4F30463968FEF7F7F83860C9
:105B700006460B98FEF7A6F9DFF80C810746D8F821
:105B80000010FEF791FB10B1089BC8F80030DFF859
:105B900000813846D8F80010FEF7A4FB10B1089B2E
:105BA000C8F80030DFF8F8903846D9F80010FEF752
:105BB000D5F8384F8046C9F8000039685846FEF7D6
:105BC00073FB08B1C7F800B0334F58463968FEF789
:105BD00089FB08B1C7F800B0324F58463968FEF764
:105BE000BDF8314A386013688146581C1060FEF7D2
:105BF00065F9074601463046FEF76CFA2B4B3946ED
:105C000018604046FEF766FA294B39461860484648
:105C1000FEF760FA274B1860274B1B78012B98BFC3
:105C200000234BE00000A040000020410000C842DB
:105C300078030020E8040020EF040020D4040020B2
:105C40004C01002048010020C40400204401002031
:105C500040010020BC0400202C010020280100206D
:105C6000A4040020CC040020C8040020C0040020AC
:105C7000A80400201C010020EE0400203C010020AC
:105C800038010020286B6E4E34010020286B6ECE48
:105C9000300100202401002020010020B404002055
:105CA000AC0400209C040020D0040020B804002094
:105CB000B0040020A0040020F404002088BF0123C9
:105CC0002B7042F6E063B4FBF3F203FB1244002CAA
:105CD00039D1214B21491B6803200B60204B1B68E5
:105CE0004B60204B1B688B601F4B1B68CB601F4BAE
:105CF0001B680B611E4B1B684B611E4B1B688B6145
:105D00001D4B1B68CB611D4B1B680B621C4B1B683A
:105D10004B621C4B1B688B621B4B1B68CB621B4B83
:105D20001B680B631A4B1B684B631A4B1B688B6316
:105D3000194B1B68CB63194B1B680B64184B1B6812
:105D40004B6402F013FC174A13680133136015B05B
:105D5000BDE8F08FB14634E64C010020400400203D
:105D600048010020C8040020440100204001002018
:105D7000C00400202C01002028010020A8040020DD
:105D80003C01002038010020B8040020340100202C
:105D900030010020B0040020240100202001002058
:105DA000A0040020E8040020F8B540F2C1720023EE
:105DB0004FF49665084C094EC4E90023C4E9023348
:105DC000074F206133463A462146064804F0B0F8B2
:105DD00008B1013DF6D1F8BD68050020100500208E
:105DE00080050020C83B0020FE22064B1A700022CE
:105DF000587008209A70DA701A715A719A71DA71B3
:105E0000FFF7D2BF800500202DE9F74FDFF8C482ED
:105E1000B14F98F800203B68022AB04C40F0A481B2
:105E2000AF4A1278002A40F09F81AE4AAE492BB1AA
:105E3000C820B3FBF0F500FB15331BB110780B78CD
:105E400098423DD00B78A9481370A94A9B0011785D
:105E500003F004030E298CBF00211178A54D9CBFCF
:105E60000131C9B211701278617802F01F020A4341
:105E7000A17842F0A0020B4343F002036270A370CA
:105E800001A943EA02230122019304F09BFA0323B0
:105E90002B6151234FF49666DFF85C92DFF83CA249
:105EA00020702B604B4652462946944804F040F837
:105EB00008B1013EF6D10023236063602B612B60A3
:105EC00028223B68B3FBF2F102FB1133002B40F0B8
:105ED000D2808B4B1B785B0640F1CD80894D854E7F
:105EE000EB6D4FF4966923606B6EDFF80CA2636074
:105EF0000823336140F2F163DFF8E0B133605346C9
:105F00005A4631467D4804F013F810B1B9F1010941
:105F1000F5D12B6A4FF496692360AB6ADFF8D8A1FC
:105F200063600823336140F2F263DFF8B0B1714976
:105F3000336053465A46714803F0FAFF18B1B9F17D
:105F400001096C49F5D16B6A4FF496692360EB6ADD
:105F5000DFF8A4A163600823336140F2F363DFF844
:105F60007CB16449336053465A46644803F0E0FF0D
:105F700018B1B9F101095F49F5D1AB6C4FF49669DD
:105F800023602B6CDFF870A163600823336140F25B
:105F9000F463DFF848B15749336053465A465748CF
:105FA00003F0C6FF18B1B9F101095249F5D1EB6C04
:105FB0004FF4966923602B6DDFF83CA163600823E2
:105FC000336140F2F563DFF814B14A493360534658
:105FD0005A464A4803F0ACFF18B1B9F101094549E6
:105FE000F5D16B6D4FF496692360AB6DDFF808A1B6
:105FF00063600823336140F2F663DFF8E0B03D49A7
:10600000336053465A463D4803F092FF18B1B9F148
:1060100001093849F5D195F88430DFF8C090237034
:1060200095F88130DFF8CCA0637095F88230A370CA
:1060300095F88630E37095F88730237195F88830AD
:10604000637195F88530A37195F889304FF49665A2
:10605000E3710823336140F2F7633360264E334621
:106060004A465146254803F063FF08B1013DF6D189
:106070000023236063603B6823B1214E33785A06C6
:1060800000F1A68014213B68B3FBF1F201FB123250
:10609000002A69D1002B67D04FF4FA421A4B1B49F2
:1060A0001B88144DC3EB0323B3FBF2F32370184B8F
:1060B0004FF496661B88DFF84090C3EB0323B3FBD5
:1060C000F2F34CF250326370124BDFF810A01B68F1
:1060D00022E000BF580100201405002057050020D1
:1060E000D5050020FE040020F20400202C3C0020F6
:1060F0004D0500201805002010050020C83B002099
:1061000067050020B40300205001002000007F43F9
:1061100052010020D8040020C3EB0323B3FBF2F3A9
:10612000A370764B1868FDF721FF7549FDF7D2FF84
:10613000FEF71EF9734BFF281B7828BFFF20237141
:1061400005232B614FF4D863E0702B604B46524619
:1061500029466D4803F0ECFE08B1013EF6D100235C
:10616000236063602B612B60684B69491A68694D35
:106170000132C72A1A6088BF01223B6888BF88F8AD
:10618000002001333B600B6801330B602968C82B8A
:1061900001F10101296040F299802F215A2002F07B
:1061A0008DF82B68C82B40F299802F215D2002F0DA
:1061B00085F8594B1B68322B40F298802F215B20C9
:1061C00002F07CF800232360636003B0BDE8F08F29
:1061D000524B534D1B884FF4966923701B0A637012
:1061E000504BDFF844A11B88DFF840B1A3701B0AB5
:1061F000E3704F4B1B68636008232B6140F2EF6331
:106200002B6053465A4629463F4803F091FE10B191
:10621000B9F10109F5D10023236063602B612B6084
:106220003B68002B3FF42EAF33785B067FF52AAF37
:10623000324B4FF496691B68DFF8ECA023603D4BAE
:10624000DFF8E8B01B683649636008232B6140F231
:10625000EE632B6053465A462B4803F069FE18B193
:10626000B9F101092E49F5D10023236063602B6148
:106270002B603B68002B3FF405AF33785E067FF55B
:1062800001AF2D4B4FF496661B68DFF89C901A0AFD
:10629000237062701A0C1B0EE37004232B614FF401
:1062A000DE63DFF888A0DFF878B0A2702B604B4681
:1062B00052465946144803F03BFE08B1013EF6D160
:1062C0000023236063602B612B60DBE65A2001F022
:1062D000E1FF2F287FF465AF2E215FE75D2001F0FD
:1062E000D9FF2F287FF465AF2E215FE75B2001F0F7
:1062F000D1FF2F287FF466AF2E2160E7980400209D
:106300000000114304060020C83B00200C050020BB
:106310000805002004050020000500205001002091
:10632000180500205201002010050020570500200C
:106330009404002088040020DC04002038B51B4CA5
:106340001B4D22462B46012103F044FE40F202730E
:1063500022689A421ED1174B1A6022691A612A7864
:10636000022A0AD16B783E2B07D1AB782BB91249A0
:106370000B7012490A70124A13600D490D4801F062
:1063800021FA38B90F4A2B6813606B6853600122F9
:106390000D4B1A700022C4E9022222616260A261E0
:1063A000226062612A606A6038BD00BF300500204B
:1063B0005F0500209C0500204F05002058010020AB
:1063C0000C050020DE050020F50500202DE9F8432E
:1063D000BB4DBC4C2A462346002103F0FBFD2A6836
:1063E000B2F5DA6F2BD12178B74B1970A1790E294C
:1063F00001D90F211970B5490B78022B40F0828129
:10640000AB68002B40F07E81B2F5F86F40F07A81E6
:10641000297C2278002900F0FD80F43A0B2A00F252
:106420004D81DFE812F00301BB00A1002B004D00FD
:106430004B01430136014B0199008200690040F293
:1064400002239A42D7D12368A14903F03F00087084
:10645000A049C3F3831008709F49C3F384200870D8
:106460009E49C3F3C43008709D49C3F305500870BA
:106470009C499B0E0B7021799B4BBBE7042903D8E9
:106480002220FFF7B1FCC5E09848D4F80120D0F8ED
:10649000013097491BBA83F0A53312BA01EBF363BD
:1064A00093420BD10022FF21924B027019705A7057
:1064B0009A70DA701A715A719A71F5E02520E0E746
:1064C00003F04CF88C4B894A43401E0EC3F307403F
:1064D000C3F30721DBB2137156709070D170854AF7
:1064E000FF2713710023177056709070D17053718D
:1064F0009371D37108208BE040F201127F4B802111
:106500001A80FF227B4B08201A709970012200210B
:106510005A705971D87018719A71DA71FFF744FC8A
:106520002F21612001F0CAFE74E00022FF21734B8D
:1065300008201A806F4B19705A709A70DA701A71AD
:106540005A719A71DA71FFF72FFC612001F0A2FEF7
:106550002F285FD12E21E4E7FF22664B1A70674A8D
:1065600052785A700022A3E7062989D96349A37893
:10657000D4F803208B704A60002B81D1B2F1005F08
:10658000FFF47EAF5E498A423FF47AAFFF21594A59
:10659000117053709370D3701371A8E70129677855
:1065A0003FF46EAF514A1278002A87D17A1E062A2C
:1065B0003FF666AFDFF8448198F80220002A7FF4A6
:1065C0005FAFD8F80460B6F1005FFFF459AFC6F1D1
:1065D000005202F5A04297423FF652AF454AFF21D2
:1065E00010461170F15C013302F8011FD9B2B942B3
:1065F000F8D307F101095FFA89F9C7F10702002111
:10660000D2B2484408F054FA48463E44C8F8046000
:10661000FFF7CAFB0023C5E902332B616B60AB6156
:106620002B606B6123606360BDE8F88307296278A3
:106630007FF626AF2D49097800297FF43FAF511E20
:1066400006293FF61DAFE17800297FF419AF66688F
:10665000B6F1005FFFF414AFC6F1005101F5A0419F
:106660008A423FF60DAFFF20224908700846F75CCA
:10667000013301F8017FDFB2BA42F8D8561CF6B2F6
:10668000C2F107020021D2B2304408F011FA3046BC
:10669000BEE7FF22174B1A7000225A709A70DA7008
:1066A0001A715A719A711022DA7123E701293FF4A5
:1066B000E7AEFF220F4B1A70012252E72020E0E6DE
:1066C000300500205F050020570100205801002000
:1066D00056050020550500205405002053050020D4
:1066E0005205002051050020500500209005002093
:1066F00068245713800500205A5AA5A58805002054
:106700000050002040F2FF339A420ED12378424AD3
:1067100013F0600F13703FF47DAF00233F4A1370F6
:1067200002220A703E4A136074E7972A0CD10022B5
:106730003C4B1A603C4B22781A701B78062B55D9BB
:106740002F215E2001F0BAFD2B68502B7FF462AF41
:106750000022364B66781A6033460822A17806F08C
:106760001F005FB2002F4FEA4303DBB245DB013A63
:1067700012F0FF02F5D108224B405FB2002F4FEA22
:106780004303DBB23CDB013A12F0FF02F5D1284FA4
:106790003A78013202F01F02904234D0013202F006
:1067A0001F02A2EB000CDCF1000242EB0C0294F899
:1067B00000C09C45DFF87CC027D1CB0003F0180354
:1067C00043EA5613162B20D1FAB11B4BC1F38001BB
:1067D000197000233870CCF800305C2001F05AFDAD
:1067E0002F287FF417AF2E215C209BE65E2001F05E
:1067F00051FD2F28A8D12E21A3E783F00703B6E788
:1068000083F00703BFE70122D1E7DCF800303870DE
:106810000133CCF80030E0E7670500204F05002089
:106820000C050020040500204E050020080500206E
:106830004C0500200005002055010020F8B5074652
:106840000E4602F08BFE0546154C02F087FE2369CA
:10685000401B984201D3002016E02378002BF4D08F
:1068600000232370A37813F00F0310D194F90420B0
:10687000E378002A3B70237904DA0F33DBB2082B6C
:1068800003D8012301203370F8BDA37AFAE7012B66
:1068900003D102F063FE0546D7E74FF0FF30F3E780
:1068A000680100202DE9F0411446142207468AB001
:1068B0009DF840800D460DEB020000211E4608F0B9
:1068C000F7F80497B8F1000F0DD0082231460DEB10
:1068D000020008F0EDF822462946082402A808F034
:1068E00019F90DEB04050894054C2A46204601AB26
:1068F00004A903F01DFB0028F7D10AB0BDE8F08120
:10690000C83B00200B8810B59C1CB4F5207F09D82B
:10691000140AC4540B881844427001200B880233B7
:106920000B8010BD0020FCE738B504461D46FFF77C
:10693000E9FF18B12A462046FFF7E4FF00F0010006
:1069400038BD70B505461E46FFF7DCFF58B10B8811
:106950001A1DB2F5207F97BF01200020EE500B8852
:106960009CBF04330B8070BD70B505461E46FFF713
:10697000C9FF58B10B885A1CB2F5207F97BF012080
:106980000020EE540B889CBF01330B8070BD0000CB
:10699000054A80F0A53302FB0131044B00BA0B44D9
:1069A00080EA7370704700BF795B3D1F68245713FE
:1069B00010B500680C4600BA1146FFF7E9FF030E58
:1069C0002370030C6370030AA370E07010BD000015
:1069D00070B51546064688B00C461422002103A85F
:1069E00008F066F80695064D02962246284601AB49
:1069F00002A903F09DFA0028F7D108B070BD00BFCE
:106A0000C83B002038B5104D104C2B78104904338A
:106A100023706B780A6940336370AB780868A370A1
:106A2000EB780130E3700B4B21461B6863600A4B27
:106A30001A61D2B21860FFF7CBFF002323606360B6
:106A40002B606B6038BD00BFE6050020D605002036
:106A50009C0500204C010020B805002038B5104DE1
:106A6000104C2B781049043323706B780A6940333B
:106A70006370AB780868A370EB780130E3700B4B60
:106A800021461B6863600A4B1A61D2B21860FFF797
:106A90009FFF0023236063602B606B6038BD00BFE5
:106AA000E6050020D60500209C05002048010020B6
:106AB000B805002038B5104D104C2B781049043320
:106AC00023706B780A6940336370AB780868A370F1
:106AD000EB780130E3700B4B21461B6863600A4B77
:106AE0001A61D2B21860FFF773FF0023236063605E
:106AF0002B606B6038BD00BFE6050020D605002086
:106B00009C050020C8040020B805002038B5104DB1
:106B1000104C2B781049043323706B780A6940338A
:106B20006370AB780868A370EB780130E3700B4BAF
:106B300021461B6863600A4B1A61D2B21860FFF7E6
:106B400047FF0023236063602B606B6038BD00BF8C
:106B5000E6050020D60500209C0500204401002009
:106B6000B805002038B5104D104C2B78104904336F
:106B700023706B780A6940336370AB780868A37040
:106B8000EB780130E3700B4B21461B6863600A4BC6
:106B90001A61D2B21860FFF71BFF00232360636005
:106BA0002B606B6038BD00BFE6050020D6050020D5
:106BB0009C05002040010020B805002038B5104D8C
:106BC000104C2B781049043323706B780A694033DA
:106BD0006370AB780868A370EB780130E3700B4BFF
:106BE00021461B6863600A4B1A61D2B21860FFF736
:106BF000EFFE0023236063602B606B6038BD00BF35
:00000001FF
